{
    "contractName": "MultiTransfer",
    "abi": [
        {
            "anonymous": false,
            "inputs": [
                {
                    "indexed": true,
                    "internalType": "address",
                    "name": "previousOwner",
                    "type": "address"
                },
                {
                    "indexed": true,
                    "internalType": "address",
                    "name": "newOwner",
                    "type": "address"
                }
            ],
            "name": "OwnershipTransferred",
            "type": "event"
        },
        {
            "anonymous": false,
            "inputs": [
                {
                    "indexed": false,
                    "internalType": "address",
                    "name": "account",
                    "type": "address"
                }
            ],
            "name": "Paused",
            "type": "event"
        },
        {
            "anonymous": false,
            "inputs": [
                {
                    "indexed": false,
                    "internalType": "address",
                    "name": "account",
                    "type": "address"
                }
            ],
            "name": "Unpaused",
            "type": "event"
        },
        {
            "stateMutability": "payable",
            "type": "fallback"
        },
        {
            "inputs": [],
            "name": "emergencyStop",
            "outputs": [],
            "stateMutability": "nonpayable",
            "type": "function"
        },
        {
            "inputs": [
                {
                    "internalType": "address payable[]",
                    "name": "_addresses",
                    "type": "address[]"
                },
                {
                    "internalType": "uint256[]",
                    "name": "_amounts",
                    "type": "uint256[]"
                }
            ],
            "name": "multiTransferETH",
            "outputs": [],
            "stateMutability": "payable",
            "type": "function"
        },
        {
            "inputs": [
                {
                    "internalType": "address",
                    "name": "_token",
                    "type": "address"
                },
                {
                    "internalType": "address[]",
                    "name": "_addresses",
                    "type": "address[]"
                },
                {
                    "internalType": "uint256[]",
                    "name": "_amounts",
                    "type": "uint256[]"
                },
                {
                    "internalType": "uint256",
                    "name": "_amountSum",
                    "type": "uint256"
                }
            ],
            "name": "multiTransferToken",
            "outputs": [],
            "stateMutability": "nonpayable",
            "type": "function"
        },
        {
            "inputs": [
                {
                    "internalType": "address",
                    "name": "_token",
                    "type": "address"
                },
                {
                    "internalType": "address payable[]",
                    "name": "_addresses",
                    "type": "address[]"
                },
                {
                    "internalType": "uint256[]",
                    "name": "_amounts",
                    "type": "uint256[]"
                },
                {
                    "internalType": "uint256",
                    "name": "_amountSum",
                    "type": "uint256"
                },
                {
                    "internalType": "uint256[]",
                    "name": "_amountsEther",
                    "type": "uint256[]"
                }
            ],
            "name": "multiTransferTokenEther",
            "outputs": [],
            "stateMutability": "payable",
            "type": "function"
        },
        {
            "inputs": [],
            "name": "owner",
            "outputs": [
                {
                    "internalType": "address",
                    "name": "",
                    "type": "address"
                }
            ],
            "stateMutability": "view",
            "type": "function"
        },
        {
            "inputs": [],
            "name": "paused",
            "outputs": [
                {
                    "internalType": "bool",
                    "name": "",
                    "type": "bool"
                }
            ],
            "stateMutability": "view",
            "type": "function"
        },
        {
            "inputs": [],
            "name": "renounceOwnership",
            "outputs": [],
            "stateMutability": "nonpayable",
            "type": "function"
        },
        {
            "inputs": [
                {
                    "internalType": "address",
                    "name": "newOwner",
                    "type": "address"
                }
            ],
            "name": "transferOwnership",
            "outputs": [],
            "stateMutability": "nonpayable",
            "type": "function"
        },
        {
            "inputs": [],
            "name": "unPaused",
            "outputs": [],
            "stateMutability": "nonpayable",
            "type": "function"
        },
        {
            "stateMutability": "payable",
            "type": "receive"
        }
    ],
    "bytecode": "608060405234801561001057600080fd5b506000805460ff1916905561002433610029565b610082565b600080546001600160a01b03838116610100818102610100600160a81b0319851617855560405193049190911692909183917f8be0079c531659141344cd1fd0a4f28419497f9722a3daafe3b4186f6b6457e091a35050565b6111af806100916000396000f3fe6080604052600436106100845760003560e01c806377988cf81161005657806377988cf81461013f5780638da5cb5b14610152578063cc5dcd1114610188578063db0c03b41461019b578063f2fde38b146101bb57005b8063061a46a9146100d85780635c975abb146100ed57806363a599a414610115578063715018a61461012a57005b366100d65760405162461bcd60e51b815260206004820152601e60248201527f43616e206e6f7420616363657074204574686572206469726563746c792e000060448201526064015b60405180910390fd5b005b3480156100e457600080fd5b506100d66101db565b3480156100f957600080fd5b5060005460ff1660405190151581526020015b60405180910390f35b34801561012157600080fd5b506100d66101ed565b34801561013657600080fd5b506100d66101fd565b6100d661014d366004610e3e565b61020f565b34801561015e57600080fd5b5060005461010090046001600160a01b03166040516001600160a01b03909116815260200161010c565b6100d6610196366004610ebf565b6103fe565b3480156101a757600080fd5b506100d66101b6366004610f75565b610819565b3480156101c757600080fd5b506100d66101d6366004611000565b610ba2565b6101e3610c1b565b6101eb610c7b565b565b6101f5610c1b565b6101eb610ccd565b610205610c1b565b6101eb6000610d0a565b610217610d63565b826102345760405162461bcd60e51b81526004016100cd90611024565b806102515760405162461bcd60e51b81526004016100cd90611054565b8281146102705760405162461bcd60e51b81526004016100cd90611082565b3460005b848110156103f65783838281811061028e5761028e6110b1565b905060200201358210156102e45760405162461bcd60e51b815260206004820152601860248201527f496e73756666696369656e742045746865722076616c7565000000000000000060448201526064016100cd565b8383828181106102f6576102f66110b1565b905060200201358261030891906110dd565b9150600086868381811061031e5761031e6110b1565b90506020020160208101906103339190611000565b6001600160a01b031685858481811061034e5761034e6110b1565b9050602002013560405160006040518083038185875af1925050503d8060008114610395576040519150601f19603f3d011682016040523d82523d6000602084013e61039a565b606091505b50509050806103e35760405162461bcd60e51b8152602060048201526015602482015274115d1a195c881d1c985b9cd9995c8819985a5b1959605a1b60448201526064016100cd565b50806103ee816110f6565b915050610274565b505050505050565b610406610d63565b8584146104255760405162461bcd60e51b81526004016100cd90611082565b8581146104445760405162461bcd60e51b81526004016100cd90611082565b856104615760405162461bcd60e51b81526004016100cd90611024565b8361047e5760405162461bcd60e51b81526004016100cd90611054565b806104cb5760405162461bcd60e51b815260206004820152601a60248201527f4e6f20457468657220616d6f756e74732073706563696669656400000000000060448201526064016100cd565b60ff8611156105115760405162461bcd60e51b8152602060048201526012602482015271546f6f206d616e792061646472657373657360701b60448201526064016100cd565b6040516323b872dd60e01b815233600482015230602482015260448101849052349089906001600160a01b038216906323b872dd906064016020604051808303816000875af1158015610568573d6000803e3d6000fd5b505050506040513d601f19601f8201168201806040525081019061058c919061110f565b5060005b8881101561080c578787828181106105aa576105aa6110b1565b90506020020135866105bc91906110dd565b95508484828181106105d0576105d06110b1565b90506020020135836105e291906110dd565b925060006001600160a01b03831663a9059cbb60e01b8c8c8581811061060a5761060a6110b1565b905060200201602081019061061f9190611000565b8b8b86818110610631576106316110b1565b6040516001600160a01b039094166024850152602002919091013560448301525060640160408051601f198184030181529181526020820180516001600160e01b03166001600160e01b03199094169390931790925290516106939190611131565b6000604051808303816000865af19150503d80600081146106d0576040519150601f19603f3d011682016040523d82523d6000602084013e6106d5565b606091505b505090508061071e5760405162461bcd60e51b8152602060048201526015602482015274151bdad95b881d1c985b9cd9995c8819985a5b1959605a1b60448201526064016100cd565b60008b8b84818110610732576107326110b1565b90506020020160208101906107479190611000565b6001600160a01b0316878785818110610762576107626110b1565b9050602002013560405160006040518083038185875af1925050503d80600081146107a9576040519150601f19603f3d011682016040523d82523d6000602084013e6107ae565b606091505b50509050806107f75760405162461bcd60e51b8152602060048201526015602482015274115d1a195c881d1c985b9cd9995c8819985a5b1959605a1b60448201526064016100cd565b50508080610804906110f6565b915050610590565b5050505050505050505050565b610821610d63565b8382146108405760405162461bcd60e51b81526004016100cd90611082565b8361085d5760405162461bcd60e51b81526004016100cd90611024565b8161087a5760405162461bcd60e51b81526004016100cd90611054565b604051636eb1769f60e11b8152336004820152306024820152869082906001600160a01b0383169063dd62ed3e90604401602060405180830381865afa1580156108c8573d6000803e3d6000fd5b505050506040513d601f19601f820116820180604052508101906108ec9190611160565b101561093a5760405162461bcd60e51b815260206004820152601c60248201527f496e73756666696369656e7420746f6b656e20616c6c6f77616e63650000000060448201526064016100cd565b6040516323b872dd60e01b8152336004820152306024820152604481018390526001600160a01b038216906323b872dd906064016020604051808303816000875af115801561098d573d6000803e3d6000fd5b505050506040513d601f19601f820116820180604052508101906109b1919061110f565b5060005b85811015610b98578484828181106109cf576109cf6110b1565b90506020020135831015610a255760405162461bcd60e51b815260206004820152601960248201527f496e73756666696369656e7420746f6b656e20616d6f756e740000000000000060448201526064016100cd565b848482818110610a3757610a376110b1565b9050602002013583610a4991906110dd565b925060006001600160a01b03831663a9059cbb60e01b898985818110610a7157610a716110b1565b9050602002016020810190610a869190611000565b888886818110610a9857610a986110b1565b6040516001600160a01b039094166024850152602002919091013560448301525060640160408051601f198184030181529181526020820180516001600160e01b03166001600160e01b0319909416939093179092529051610afa9190611131565b6000604051808303816000865af19150503d8060008114610b37576040519150601f19603f3d011682016040523d82523d6000602084013e610b3c565b606091505b5050905080610b855760405162461bcd60e51b8152602060048201526015602482015274151bdad95b881d1c985b9cd9995c8819985a5b1959605a1b60448201526064016100cd565b5080610b90816110f6565b9150506109b5565b5050505050505050565b610baa610c1b565b6001600160a01b038116610c0f5760405162461bcd60e51b815260206004820152602660248201527f4f776e61626c653a206e6577206f776e657220697320746865207a65726f206160448201526564647265737360d01b60648201526084016100cd565b610c1881610d0a565b50565b6000546001600160a01b036101009091041633146101eb5760405162461bcd60e51b815260206004820181905260248201527f4f776e61626c653a2063616c6c6572206973206e6f7420746865206f776e657260448201526064016100cd565b610c83610da9565b6000805460ff191690557f5db9ee0a495bf2e6ff9c91a7834c1ba4fdd244a5e8aa4e537bd38aeae4b073aa335b6040516001600160a01b03909116815260200160405180910390a1565b610cd5610d63565b6000805460ff191660011790557f62e78cea01bee320cd4e420270b5ea74000d11b0c9f74754ebdbfc544b05a258610cb03390565b600080546001600160a01b03838116610100818102610100600160a81b0319851617855560405193049190911692909183917f8be0079c531659141344cd1fd0a4f28419497f9722a3daafe3b4186f6b6457e091a35050565b60005460ff16156101eb5760405162461bcd60e51b815260206004820152601060248201526f14185d5cd8589b194e881c185d5cd95960821b60448201526064016100cd565b60005460ff166101eb5760405162461bcd60e51b815260206004820152601460248201527314185d5cd8589b194e881b9bdd081c185d5cd95960621b60448201526064016100cd565b60008083601f840112610e0457600080fd5b50813567ffffffffffffffff811115610e1c57600080fd5b6020830191508360208260051b8501011115610e3757600080fd5b9250929050565b60008060008060408587031215610e5457600080fd5b843567ffffffffffffffff80821115610e6c57600080fd5b610e7888838901610df2565b90965094506020870135915080821115610e9157600080fd5b50610e9e87828801610df2565b95989497509550505050565b6001600160a01b0381168114610c1857600080fd5b60008060008060008060008060a0898b031215610edb57600080fd5b8835610ee681610eaa565b9750602089013567ffffffffffffffff80821115610f0357600080fd5b610f0f8c838d01610df2565b909950975060408b0135915080821115610f2857600080fd5b610f348c838d01610df2565b909750955060608b0135945060808b0135915080821115610f5457600080fd5b50610f618b828c01610df2565b999c989b5096995094979396929594505050565b60008060008060008060808789031215610f8e57600080fd5b8635610f9981610eaa565b9550602087013567ffffffffffffffff80821115610fb657600080fd5b610fc28a838b01610df2565b90975095506040890135915080821115610fdb57600080fd5b50610fe889828a01610df2565b979a9699509497949695606090950135949350505050565b60006020828403121561101257600080fd5b813561101d81610eaa565b9392505050565b602080825260169082015275139bc81859191c995cdcd95cc81cdc1958da599a595960521b604082015260600190565b602080825260149082015273139bc8185b5bdd5b9d1cc81cdc1958da599a595960621b604082015260600190565b602080825260159082015274082e4e4c2f240d8cadccee8d040dad2e6dac2e8c6d605b1b604082015260600190565b634e487b7160e01b600052603260045260246000fd5b634e487b7160e01b600052601160045260246000fd5b818103818111156110f0576110f06110c7565b92915050565b600060018201611108576111086110c7565b5060010190565b60006020828403121561112157600080fd5b8151801515811461101d57600080fd5b6000825160005b818110156111525760208186018101518583015201611138565b506000920191825250919050565b60006020828403121561117257600080fd5b505191905056fea264697066735822122095455650b378a64db0e4ad0042c98003bc303e7df7ff89866308cb472ba6375064736f6c63430008130033",
    "sourcePath": "/Users/katy/foundry-f23/myself/foundry-multi-transfer-f23/src/MultiTransfer.sol",
    "compiler": {
        "name": "solc",
        "version": "0.8.19+commit.7dd6d404"
    },
    "functionHashes": {
        "emergencyStop()": "63a599a4",
        "multiTransferETH(address[],uint256[])": "77988cf8",
        "multiTransferToken(address,address[],uint256[],uint256)": "db0c03b4",
        "multiTransferTokenEther(address,address[],uint256[],uint256,uint256[])": "cc5dcd11",
        "owner()": "8da5cb5b",
        "paused()": "5c975abb",
        "renounceOwnership()": "715018a6",
        "transferOwnership(address)": "f2fde38b",
        "unPaused()": "061a46a9"
    },
    "gasEstimates": {
        "creation": {
            "codeDepositCost": "905400",
            "executionCost": "51023",
            "totalCost": "956423"
        },
        "external": {
            "": "162",
            "emergencyStop()": "infinite",
            "multiTransferETH(address[],uint256[])": "infinite",
            "multiTransferToken(address,address[],uint256[],uint256)": "infinite",
            "multiTransferTokenEther(address,address[],uint256[],uint256,uint256[])": "infinite",
            "owner()": "2352",
            "paused()": "2304",
            "renounceOwnership()": "infinite",
            "transferOwnership(address)": "infinite",
            "unPaused()": "infinite"
        }
    }
}